{
  "_format": "hh-sol-artifact-1",
  "contractName": "ToDoList",
  "sourceName": "contracts/ToDoList.sol",
  "abi": [
    {
      "inputs": [],
      "stateMutability": "nonpayable",
      "type": "constructor"
    },
    {
      "anonymous": false,
      "inputs": [
        {
          "indexed": true,
          "internalType": "address",
          "name": "account",
          "type": "address"
        },
        {
          "indexed": true,
          "internalType": "uint256",
          "name": "userId",
          "type": "uint256"
        },
        {
          "indexed": false,
          "internalType": "string",
          "name": "message",
          "type": "string"
        },
        {
          "indexed": false,
          "internalType": "bool",
          "name": "completed",
          "type": "bool"
        }
      ],
      "name": "ToDoEvent",
      "type": "event"
    },
    {
      "inputs": [],
      "name": "_idUser",
      "outputs": [
        {
          "internalType": "uint256",
          "name": "",
          "type": "uint256"
        }
      ],
      "stateMutability": "view",
      "type": "function"
    },
    {
      "inputs": [
        {
          "internalType": "address",
          "name": "",
          "type": "address"
        }
      ],
      "name": "addressToToDoListApp",
      "outputs": [
        {
          "internalType": "address",
          "name": "account",
          "type": "address"
        },
        {
          "internalType": "uint256",
          "name": "userId",
          "type": "uint256"
        },
        {
          "internalType": "string",
          "name": "message",
          "type": "string"
        },
        {
          "internalType": "bool",
          "name": "completed",
          "type": "bool"
        }
      ],
      "stateMutability": "view",
      "type": "function"
    },
    {
      "inputs": [
        {
          "internalType": "string",
          "name": "_message",
          "type": "string"
        }
      ],
      "name": "createList",
      "outputs": [],
      "stateMutability": "nonpayable",
      "type": "function"
    },
    {
      "inputs": [
        {
          "internalType": "uint256",
          "name": "",
          "type": "uint256"
        }
      ],
      "name": "creators",
      "outputs": [
        {
          "internalType": "address",
          "name": "",
          "type": "address"
        }
      ],
      "stateMutability": "view",
      "type": "function"
    },
    {
      "inputs": [],
      "name": "getAddress",
      "outputs": [
        {
          "internalType": "address[]",
          "name": "",
          "type": "address[]"
        }
      ],
      "stateMutability": "view",
      "type": "function"
    },
    {
      "inputs": [
        {
          "internalType": "address",
          "name": "_address",
          "type": "address"
        }
      ],
      "name": "getCreatorData",
      "outputs": [
        {
          "internalType": "address",
          "name": "",
          "type": "address"
        },
        {
          "internalType": "uint256",
          "name": "",
          "type": "uint256"
        },
        {
          "internalType": "string",
          "name": "",
          "type": "string"
        },
        {
          "internalType": "bool",
          "name": "",
          "type": "bool"
        }
      ],
      "stateMutability": "view",
      "type": "function"
    },
    {
      "inputs": [],
      "name": "getMessage",
      "outputs": [
        {
          "internalType": "string[]",
          "name": "",
          "type": "string[]"
        }
      ],
      "stateMutability": "view",
      "type": "function"
    },
    {
      "inputs": [
        {
          "internalType": "uint256",
          "name": "",
          "type": "uint256"
        }
      ],
      "name": "message",
      "outputs": [
        {
          "internalType": "string",
          "name": "",
          "type": "string"
        }
      ],
      "stateMutability": "view",
      "type": "function"
    },
    {
      "inputs": [
        {
          "internalType": "uint256",
          "name": "",
          "type": "uint256"
        }
      ],
      "name": "messageId",
      "outputs": [
        {
          "internalType": "uint256",
          "name": "",
          "type": "uint256"
        }
      ],
      "stateMutability": "view",
      "type": "function"
    },
    {
      "inputs": [],
      "name": "ownerOfContract",
      "outputs": [
        {
          "internalType": "address",
          "name": "",
          "type": "address"
        }
      ],
      "stateMutability": "view",
      "type": "function"
    },
    {
      "inputs": [
        {
          "internalType": "address",
          "name": "_creator",
          "type": "address"
        }
      ],
      "name": "toggle",
      "outputs": [],
      "stateMutability": "nonpayable",
      "type": "function"
    }
  ],
  "bytecode": "0x608060405234801561001057600080fd5b5033600160006101000a81548173ffffffffffffffffffffffffffffffffffffffff021916908373ffffffffffffffffffffffffffffffffffffffff1602179055506113b5806100616000396000f3fe608060405234801561001057600080fd5b50600436106100a95760003560e01c806394432cc51161007157806394432cc514610169578063b8dcc68f14610187578063cd53d08e146101a3578063ce6d41de146101d3578063d1e8507b146101f1578063f685941614610221576100a9565b80630d64e697146100ae57806321e47d46146100e157806338cc483114610111578063468229ae1461012f578063588f9acc1461014d575b600080fd5b6100c860048036038101906100c39190610a81565b610254565b6040516100d89493929190610b81565b60405180910390f35b6100fb60048036038101906100f69190610bf9565b6103d9565b6040516101089190610c26565b60405180910390f35b6101196103fd565b6040516101269190610cff565b60405180910390f35b61013761048b565b6040516101449190610d21565b60405180910390f35b61016760048036038101906101629190610a81565b6104b1565b005b610171610526565b60405161017e9190610c26565b60405180910390f35b6101a1600480360381019061019c9190610da1565b61052c565b005b6101bd60048036038101906101b89190610bf9565b610757565b6040516101ca9190610d21565b60405180910390f35b6101db610796565b6040516101e89190610efa565b60405180910390f35b61020b60048036038101906102069190610bf9565b61086f565b6040516102189190610f1c565b60405180910390f35b61023b60048036038101906102369190610a81565b61091b565b60405161024b9493929190610b81565b60405180910390f35b6000806060600080600560008773ffffffffffffffffffffffffffffffffffffffff1673ffffffffffffffffffffffffffffffffffffffff1681526020019081526020016000206040518060800160405290816000820160009054906101000a900473ffffffffffffffffffffffffffffffffffffffff1673ffffffffffffffffffffffffffffffffffffffff1673ffffffffffffffffffffffffffffffffffffffff1681526020016001820154815260200160028201805461031690610f6d565b80601f016020809104026020016040519081016040528092919081815260200182805461034290610f6d565b801561038f5780601f106103645761010080835404028352916020019161038f565b820191906000526020600020905b81548152906001019060200180831161037257829003601f168201915b505050505081526020016003820160009054906101000a900460ff161515151581525050905080600001518160200151826040015183606001519450945094509450509193509193565b600481815481106103e957600080fd5b906000526020600020016000915090505481565b6060600280548060200260200160405190810160405280929190818152602001828054801561048157602002820191906000526020600020905b8160009054906101000a900473ffffffffffffffffffffffffffffffffffffffff1673ffffffffffffffffffffffffffffffffffffffff1681526020019060010190808311610437575b5050505050905090565b600160009054906101000a900473ffffffffffffffffffffffffffffffffffffffff1681565b6000600560008373ffffffffffffffffffffffffffffffffffffffff1673ffffffffffffffffffffffffffffffffffffffff16815260200190815260200160002090508060030160009054906101000a900460ff16158160030160006101000a81548160ff0219169083151502179055505050565b60005481565b610534610a00565b6000805490506000600560003373ffffffffffffffffffffffffffffffffffffffff1673ffffffffffffffffffffffffffffffffffffffff1681526020019081526020016000209050338160000160006101000a81548173ffffffffffffffffffffffffffffffffffffffff021916908373ffffffffffffffffffffffffffffffffffffffff16021790555083838260020191826105d3929190611184565b5060008160030160006101000a81548160ff0219169083151502179055508181600101819055506002339080600181540180825580915050600190039060005260206000200160009091909190916101000a81548173ffffffffffffffffffffffffffffffffffffffff021916908373ffffffffffffffffffffffffffffffffffffffff160217905550600384849091806001815401808255809150506001900390600052602060002001600090919290919290919290919250918261069a929190611184565b50600482908060018154018082558091505060019003906000526020600020016000909190919091505580600101548160000160009054906101000a900473ffffffffffffffffffffffffffffffffffffffff1673ffffffffffffffffffffffffffffffffffffffff167f97cb199a6fede85e8843b14a3b82273a76130b0e671f8803ce27aa90d52ee114836002018460030160009054906101000a900460ff166040516107499291906112d8565b60405180910390a350505050565b6002818154811061076757600080fd5b906000526020600020016000915054906101000a900473ffffffffffffffffffffffffffffffffffffffff1681565b60606003805480602002602001604051908101604052809291908181526020016000905b828210156108665783829060005260206000200180546107d990610f6d565b80601f016020809104026020016040519081016040528092919081815260200182805461080590610f6d565b80156108525780601f1061082757610100808354040283529160200191610852565b820191906000526020600020905b81548152906001019060200180831161083557829003601f168201915b5050505050815260200190600101906107ba565b50505050905090565b6003818154811061087f57600080fd5b90600052602060002001600091509050805461089a90610f6d565b80601f01602080910402602001604051908101604052809291908181526020018280546108c690610f6d565b80156109135780601f106108e857610100808354040283529160200191610913565b820191906000526020600020905b8154815290600101906020018083116108f657829003601f168201915b505050505081565b60056020528060005260406000206000915090508060000160009054906101000a900473ffffffffffffffffffffffffffffffffffffffff169080600101549080600201805461096a90610f6d565b80601f016020809104026020016040519081016040528092919081815260200182805461099690610f6d565b80156109e35780601f106109b8576101008083540402835291602001916109e3565b820191906000526020600020905b8154815290600101906020018083116109c657829003601f168201915b5050505050908060030160009054906101000a900460ff16905084565b600080815480929190610a1290611337565b9190505550565b600080fd5b600080fd5b600073ffffffffffffffffffffffffffffffffffffffff82169050919050565b6000610a4e82610a23565b9050919050565b610a5e81610a43565b8114610a6957600080fd5b50565b600081359050610a7b81610a55565b92915050565b600060208284031215610a9757610a96610a19565b5b6000610aa584828501610a6c565b91505092915050565b610ab781610a43565b82525050565b6000819050919050565b610ad081610abd565b82525050565b600081519050919050565b600082825260208201905092915050565b60005b83811015610b10578082015181840152602081019050610af5565b60008484015250505050565b6000601f19601f8301169050919050565b6000610b3882610ad6565b610b428185610ae1565b9350610b52818560208601610af2565b610b5b81610b1c565b840191505092915050565b60008115159050919050565b610b7b81610b66565b82525050565b6000608082019050610b966000830187610aae565b610ba36020830186610ac7565b8181036040830152610bb58185610b2d565b9050610bc46060830184610b72565b95945050505050565b610bd681610abd565b8114610be157600080fd5b50565b600081359050610bf381610bcd565b92915050565b600060208284031215610c0f57610c0e610a19565b5b6000610c1d84828501610be4565b91505092915050565b6000602082019050610c3b6000830184610ac7565b92915050565b600081519050919050565b600082825260208201905092915050565b6000819050602082019050919050565b610c7681610a43565b82525050565b6000610c888383610c6d565b60208301905092915050565b6000602082019050919050565b6000610cac82610c41565b610cb68185610c4c565b9350610cc183610c5d565b8060005b83811015610cf2578151610cd98882610c7c565b9750610ce483610c94565b925050600181019050610cc5565b5085935050505092915050565b60006020820190508181036000830152610d198184610ca1565b905092915050565b6000602082019050610d366000830184610aae565b92915050565b600080fd5b600080fd5b600080fd5b60008083601f840112610d6157610d60610d3c565b5b8235905067ffffffffffffffff811115610d7e57610d7d610d41565b5b602083019150836001820283011115610d9a57610d99610d46565b5b9250929050565b60008060208385031215610db857610db7610a19565b5b600083013567ffffffffffffffff811115610dd657610dd5610a1e565b5b610de285828601610d4b565b92509250509250929050565b600081519050919050565b600082825260208201905092915050565b6000819050602082019050919050565b600082825260208201905092915050565b6000610e3682610ad6565b610e408185610e1a565b9350610e50818560208601610af2565b610e5981610b1c565b840191505092915050565b6000610e708383610e2b565b905092915050565b6000602082019050919050565b6000610e9082610dee565b610e9a8185610df9565b935083602082028501610eac85610e0a565b8060005b85811015610ee85784840389528151610ec98582610e64565b9450610ed483610e78565b925060208a01995050600181019050610eb0565b50829750879550505050505092915050565b60006020820190508181036000830152610f148184610e85565b905092915050565b60006020820190508181036000830152610f368184610b2d565b905092915050565b7f4e487b7100000000000000000000000000000000000000000000000000000000600052602260045260246000fd5b60006002820490506001821680610f8557607f821691505b602082108103610f9857610f97610f3e565b5b50919050565b600082905092915050565b7f4e487b7100000000000000000000000000000000000000000000000000000000600052604160045260246000fd5b60008190508160005260206000209050919050565b60006020601f8301049050919050565b600082821b905092915050565b60006008830261103a7fffffffffffffffffffffffffffffffffffffffffffffffffffffffffffffffff82610ffd565b6110448683610ffd565b95508019841693508086168417925050509392505050565b6000819050919050565b600061108161107c61107784610abd565b61105c565b610abd565b9050919050565b6000819050919050565b61109b83611066565b6110af6110a782611088565b84845461100a565b825550505050565b600090565b6110c46110b7565b6110cf818484611092565b505050565b5b818110156110f3576110e86000826110bc565b6001810190506110d5565b5050565b601f8211156111385761110981610fd8565b61111284610fed565b81016020851015611121578190505b61113561112d85610fed565b8301826110d4565b50505b505050565b600082821c905092915050565b600061115b6000198460080261113d565b1980831691505092915050565b6000611174838361114a565b9150826002028217905092915050565b61118e8383610f9e565b67ffffffffffffffff8111156111a7576111a6610fa9565b5b6111b18254610f6d565b6111bc8282856110f7565b6000601f8311600181146111eb57600084156111d9578287013590505b6111e38582611168565b86555061124b565b601f1984166111f986610fd8565b60005b82811015611221578489013582556001820191506020850194506020810190506111fc565b8683101561123e578489013561123a601f89168261114a565b8355505b6001600288020188555050505b50505050505050565b6000815461126181610f6d565b61126b8186610ae1565b94506001821660008114611286576001811461129c576112cf565b60ff1983168652811515602002860193506112cf565b6112a585610fd8565b60005b838110156112c7578154818901526001820191506020810190506112a8565b808801955050505b50505092915050565b600060408201905081810360008301526112f28185611254565b90506113016020830184610b72565b9392505050565b7f4e487b7100000000000000000000000000000000000000000000000000000000600052601160045260246000fd5b600061134282610abd565b91507fffffffffffffffffffffffffffffffffffffffffffffffffffffffffffffffff820361137457611373611308565b5b60018201905091905056fea26469706673582212200e47bad8503650dd160cfc3786c780b242ca0b17b467922dc7f79dd233e26edc64736f6c63430008130033",
  "linkReferences": {},
  "deployedLinkReferences": {}
}